:020000040800F2
:1000000078FC0020AD620008A9040008AB040008D9
:10001000AF040008B3040008B704000800000000A3
:10002000000000000000000000000000BB04000809
:10003000BD040008000000001BB000085D5D000862
:10004000C7620008C7620008C7620008F3460008DC
:10005000C7620008C7620008F30E00087B0F0008A3
:10006000C7620008C7620008C7620008C7620008CC
:10007000C7620008C7620008C7620008C7620008BC
:10008000C7620008C7620008C7620008C7620008AC
:10009000C7620008C7620008C7620008B10F000805
:1000A000C7620008C7620008C7620008C76200088C
:1000B000C7620008C7620008C7620008C76200087C
:1000C000C7620008C7620008C7620008C76200086C
:1000D000C76200082F6100083F030208C7620008DA
:1000E000C7620008C7620008C7620008C76200084C
:1000F000C7620008C7620008C7620008C76200083C
:10010000C7620008BD3E0008C7620008C762000859
:10011000C7620008C7620008C7620008C76200081B
:10012000C7620008C7620008C7620008C76200080B
:1001300000F002F800F0B0F80AA090E8000C824449
:100140008344AAF10107DA4501D100F0A5F8AFF226
:10015000090EBAE80F0013F0010F18BFFB1A43F0A5
:10016000010318476C0605008C0605000A444FF091
:10017000000C10F8013B13F0070408BF10F8014B06
:100180001D1108BF10F8015B641E05D010F8016B4B
:10019000641E01F8016BF9D113F0080F1EBF10F8AF
:1001A000014BAD1C0C1B09D16D1E58BF01F801CBD2
:1001B000FAD505E014F8016B01F8016B6D1EF9D555
:1001C0009142D6D37047000000230024002500266A
:1001D000103A28BF78C1FBD8520728BF30C148BFAA
:1001E0000B6070476E2923F0FB80702922F0638535
:1001F000662925F05480652925F05180672925F06E
:100200004E806129AFF3008003681B0A28BF41F0CC
:100210008001692922F0D484642922F0D1847529CF
:1002200022F0CE846F2923F00984782922F02F85CB
:10023000E92923F0A383E42923F0A083F52923F0FF
:100240009D83EF2923F00684F82922F02E85036888
:10025000DB0928BF41F08001632923F01283732951
:1002600023F01783E32923F00585F32923F00A857A
:10027000002070471FB522F0C9FF040000200021B4
:1002800024F0C4F9401C60600020002124F0D4F95F
:10029000E0601FBD10B510BD23F0B6FD1146FFF79D
:1002A000E9FF00F009F823F0D4FD03B4FFF7F2FFF3
:1002B00003BC05F0E3FD00007CB505F05BFD01210A
:1002C000192006F0A1FD0121454806F0AEF94FF4D2
:1002D000A06006F00BF805F03DFA642005F09BFDE8
:1002E0004FF4E13005F07FFE072005F079FE4FF472
:1002F000E1301FF083FF01F06CFA05F08DFB01F097
:1003000043FC03F0D3FE04F0C9FC00200AF0CFFE4A
:1003100001200AF0CCFE05F05EFC05F068F904F05F
:10032000B1FF0A2005F077FD1EF086F805F014FCF9
:1003300019F0F8FB04E02BA207212FA005F03CFEEA
:1003400002F0EBFD0028F6D12D49012208682DA10D
:100350001BF0BDF8044624B12BA2072126A005F00E
:100360002BFE08E02DA2072123A005F025FE4FF467
:10037000FA7005F050FD6A4601A92DA019F076FC2F
:100380000028EFD10098830A2AA201211AA005F0C3
:1003900013FE08F012FA06E02CA022F083FB4FF4C3
:1003A000FA7005F038FD19F05FFA0028F4D104F076
:1003B0001BFB0B232A4A00212A480AF08FF9054625
:1003C00015B129A022F06EFB1DF013FB2DA2002118
:1003D00009A005F0F1FD08F014FB00207CBD000031
:1003E0000002300054462074657374206661696CA5
:1003F0006564210D0A0000006D61696E0000000057
:1004000004020020303A00005344206D6F756E7472
:10041000206661696C65640D0A0000005344204643
:1004200061746673204572726F72210D0A000000BC
:10043000300000007364206672656520636F6E741F
:1004400061696E2025640D0A000000004C77697018
:1004500020496E6974206661696C6564210D0A002B
:10046000400500208D0C0008737461727420746163
:10047000736B20637265617465206661696C656485
:10048000210D0A0053797374656D20496E697420DB
:100490006F7665722C20776174696E67202E2E2E20
:1004A0000D0A0D0A00000000704700BFFEE700BF04
:1004B000FEE700BFFEE700BFFEE7704770470000A1
:1004C0000CB50020019000906C48006840F480302A
:1004D0006A49086000BF6948006800F40030009075
:1004E0000198401C0190009818B90198B0F5A06FD0
:1004F000F1D16248006800F4003010B10120009092
:1005000001E0002000900098012843D15C48006879
:1005100040F010005A4908600846006820F00300C7
:1005200008600846006840F00200086053484068D0
:10053000524948600846406848600846406840F4B0
:10054000806048600846406820F47C104860084697
:10055000406840F4E81048600846006840F0807049
:10056000086000BF4548006800F000700028F9D01E
:100570004248406820F0030040494860084640680F
:1005800040F00200486000BF3C48406800F00C00AA
:100590000828F9D10CBD10B5FFF792FF10BD10B5BA
:1005A0003648006840F00100344908600846406859
:1005B00034490840314948600846006832490840DB
:1005C0002E4908600846006820F48020086008462C
:1005D000406820F4FE0048604FF41F008860FFF779
:1005E000DAFF4FF000602949086010BD10B5002106
:1005F00000200022214B5B6803F00C0121B104298B
:1006000006D0082928D107E0214B224C236027E09F
:100610001F4B204C236023E0184B5B6803F47010E1
:10062000164B5B6803F48032022303EB904022B93F
:10063000194B4343174C23600DE0104B5B6803F4E8
:10064000003323B1144B4343124C236003E0104B9F
:100650004343104C236003E00D4B0E4C236000BF5E
:1006600000BF064B5B68C3F303130C4CE15C094B02
:100670001B68CB40074C236010BD000000100240F7
:10068000002002400000FFF8FFFFF6FE08ED00E04A
:1006900000127A000000002000093D000400002044
:1006A00008B559E06A460021F648006809F0B2FB37
:1006B00004462078012802D0022844D126E0F2A284
:1006C0000021FBA005F078FC0023142219461846EF
:1006D0000AF07EFB05200AF081FA06200AF07EFA75
:1006E0000D200AF07BFA0F200AF078FA10200AF0A9
:1006F00075FA09200AF072FA1DF001FFF0A200213C
:10070000EBA005F059FC05F00BFA1DE0F14800786C
:10071000012802D10020EF49087005F01BF801F014
:100720003FFB1DF066F905200AF0C9F906200AF022
:10073000C6F90D200AF0C3F90F200AF0C0F9102005
:100740000AF0BDF900E000BF00BF4FF4FA730022C9
:10075000114610460AF03CFBA4E78EB00024342179
:1007600001A822F0E7FC00260025002738E001A8B8
:1007700005F047F90446002C2BD0D7A20021DCA0BD
:1007800005F01AFC002505E001A8415DDCA022F07F
:1007900089F96D1CA542F7D3C4A022F083F99DF816
:1007A00006603346D8A20121D1A005F005FC3246EF
:1007B000214601A81FF06BFFC7B22FB93246214670
:1007C00001A81FF01FFF04E0D3A20521C8A005F077
:1007D000F3FB4FF4FA730022114610460AF0F8FAC0
:1007E000C5E700245BE0D5480068002833D0D4A1D9
:1007F000D44822F085FB00284BD0032021F0EBF8F1
:1008000004462346D0A20121D8A005F0D5FB012C37
:100810000BD1DAA20021D5A005F0CEFB11200AF001
:10082000DDF90D200AF0DAF909E0022C07D1D9A28E
:100830000021CEA005F0C0FB11200AF040F90321F1
:10084000204621F063FC0321204621F02DFE0020EC
:10085000BA4908601DE0D4480078012819D1B8A130
:10086000D24822F04DFBA0B1022021F0B4F804469A
:100870002346CFA20121BDA005F09EFB0221204608
:1008800021F044FC0221204621F00EFE0020C64942
:10089000087000230122194618460AF099FAA2E7C7
:1008A000A6B000240025FF26B04600202390229009
:1008B000814682467C2103A822F03CFC0020029065
:1008C00001900527A9E024A804F053FB9DF89100AE
:1008D00003F0A3FF04469DF8920003F09EFF054637
:1008E000052094FBF0F100FB114008B9012000E065
:1008F0000020B44201D0012100E00021084000287E
:100900006FD003A821F027FF22A923A821F02BFFF5
:10091000264620F050FB0CB9012000E000204545A0
:1009200001D0012100E00021084058B1A84620F084
:100930007AFC5F21A64805F0DAF9A6A20021AAA058
:1009400005F03AFBAD4942F2192020F000F981464A
:100950001DA9082020F0FBF882465146484624F0A5
:10096000F7FB09D8A6A200219FA005F025FB3C219A
:10097000A248273805F0BBF9781FC7B2002F3ED137
:1009800005F027F8052709200AF099F8A1A200210F
:1009900095A005F011FB7820029010E0A84800789F
:1009A000012803D10020A64908700BE00023012292
:1009B000194618460AF00CFA0298401E0290029856
:1009C0000028EBD100BF029860B99EA2002186A04A
:1009D00005F0F2FA0120019001A92A48006809F007
:1009E000E1FA13E09E4A00217FA005F0E5FA092014
:1009F0000AF0F4F89B48006809F059FD06E0012070
:100A0000019001A91F48006809F0CCFA4FF448731F
:100A10000022114610460AF0DBF954E710B50446EF
:100A20001FF048FB10BD1CB50024002501200190DB
:100A300026E06A4600218B48006809F089FC0F20F7
:100A40000AF0CCF80AF0C2FA05461DF08DFC044607
:100A500024B185A205218AA005F0AEFA0F200AF084
:100A60002EF801A90748006809F09CFA4FF4FA73C0
:100A70000022114610460AF0ABF928460AF0AAFAFD
:100A8000D7E700001800002077616974696E67205D
:100A9000323073202C7468656E20656E7465722028
:100AA00073746F70206D6F64652E2E2E0D0A00001A
:100AB00073746F706D6F64655F7461736B000000B9
:100AC000656E7465722073746F70206D6F64650D50
:100AD0000A0000001C000020626C7565746F6F7462
:100AE00068205265636569766520646174613A00C7
:100AF000626C7565746F6F74685F7461736B00000E
:100B0000253032780900000066756E5F6964202523
:100B10003032780D0A000000626C7565746F6F7476
:100B200068206578656375746520636F6D6D616EAF
:100B300064206661696C65640D0A00007000002025
:100B40007E7E00009C3F002072733233325F332080
:100B5000726563656976652066756E5F6964206994
:100B60007320253032780D0A00000000726563653D
:100B70006976655F636F6D6D616E6400656E746547
:100B80007220726573706F6E7365206D6F64650D92
:100B90000A000000656E746572206E6F726D616C84
:100BA000206D6F64650D0A007C020020C4EF0020F8
:100BB0006770727320726563656976652066756E0D
:100BC0005F696420697320253032780D0A000000C7
:100BD000C8F0002073656E6420686F7572206D65C3
:100BE00073736167650D0A0062617369635F6D65A8
:100BF00073736167655F7461736B0000B3F000200D
:100C000073656E6420706C7573206D6573736167B6
:100C1000650D0A00776174696E6720746F207361D7
:100C2000766520706963747572652C6D61782074C7
:100C3000696D6520697320313230730D0A00000040
:100C400064020020667470207361766520706963A9
:100C500074757265206661696C65640D0A00000038
:100C60007C0405081400002073656E6420706963BD
:100C700074757265206661696C65640D0A00000018
:100C8000677072735F7461736B00000030B585B07C
:100C90000546002407F0CDFE0AF098F9044600202E
:100CA00009F0C9FAFE4908600521FE4808F0DEFF98
:100CB000FD490860032000214FF44872FB4BCDE949
:100CC0000221CDE9001304900A23F94AAFF2A920CA
:100CD00009F05BFD032000214FF4AF72F54BCDE925
:100CE0000221CDE9001304900923F34AAFF2D32087
:100CF00009F04BFD032000214FF48072EF4BCDE94A
:100D00000221CDE9001304900D23ED4AAFF26F40AC
:100D100009F03BFD032000214FF48072E94BCDE93F
:100D20000221CDE9001304900F23E74AAFF24D50A2
:100D300009F02BFD032000214FF48072E34BCDE935
:100D40000221CDE9001304901023E14AAFF2F550DF
:100D500009F01BFD032000214FF48072DD4BCDE92B
:100D60000221CDE9001304901123DB4AAFF2CF60DA
:100D700009F00BFD092009F031FF0B2009F02EFFCF
:100D800020460AF027F905B030BD08E004F0D3FF93
:100D90004FF4FA730022114610460AF019F8F5E7ED
:100DA0001FB5A5E0CDA021F07DFE02A90D2009F020
:100DB000D3FEDDE90221881824F0B6F80546642246
:100DC000039901FB02F024F0AFF80646294623F010
:100DD00095FF0446204623F0F7FECDE90001C9A0A7
:100DE000DDE9021221F05EFE02A90F2009F0B4FE37
:100DF000DDE90221881824F097F80546642203995A
:100E000001FB02F024F090F80646294623F076FF15
:100E10000446204623F0D8FECDE90001C948DDE9AB
:100E2000021221F03FFE02A9102009F095FEDDE933
:100E30000221881824F078F805466422039901FB02
:100E400002F024F071F80646294623F057FF0446C5
:100E5000204623F0B9FECDE90001BBA0DDE9021276
:100E600021F020FE02A90A2009F076FEDDE9022128
:100E7000881824F059F805466422039901FB02F012
:100E800024F052F80646294623F038FF044620464F
:100E900023F09AFE0E46CDE90001BAA0DDE9021268
:100EA00021F000FE02A9092009F056FEDDE9022129
:100EB000881824F039F805466422039901FB02F0F2
:100EC00024F032F80646294623F018FF044620464F
:100ED00023F07AFECDE90001B8A0DDE9021221F08D
:100EE000E1FD4FF4FA7300221146104609F070FF3D
:100EF00058E708B50020009007F075FCFFF74FFB9E
:100F0000BC48007801280CD10020BA490870BAA268
:100F10000021C1A005F050F8C4496348006809F0F9
:100F200041F8012006F093FD6B4601221021642058
:100F300004F0DCF99DF8000000F0300030B110281A
:100F400008D020280CD0302812D10DE0B8A021F014
:100F5000A9FD0EE0BDA20021AFA005F02DF808E02C
:100F6000C9A021F09FFD04E0CEA021F09BFD00E090
:100F700000BF00BF07F052FC08BD10B507F033FCFE
:100F8000FFF70DFB4FF4E13005F02DF8CC48006879
:100F9000401CCB49086008460368CAA20121D1A0C1
:100FA00005F00AF8022006F052FD07F037FC10BDEC
:100FB00010B50024402006F039FD70B107F013FC95
:100FC0004020CD49086001E001F0AFF9CB4800684E
:100FD0000028F9D007F022FCD5E1802006F026FD9C
:100FE0000028F9D007F0FFFB802006F030FD052136
:100FF000002003F056FC00F00100D8B10020C049E9
:10100000086000BF0021084603F04BFCC4B2642016
:1010100004F0D6FEBA4801680068401CB84A106067
:10102000B84844540521002003F03BFC00F00100C7
:101030000028E7D10521012003F033FC00F0010076
:10104000D8B10020B049086000BF0021012003F0A2
:1010500028FCC4B2642004F0B3FEAB480168006809
:10106000401CA94A1060A94844540521012003F0FE
:1010700018FC00F001000028E7D10521022003F050
:1010800010FC00F0010048B10020A149086000BF39
:101090000021022003F005FCC4B23BE14EE1000058
:1010A000140000203003002018000020BC0A00209B
:1010B0003817002044050020B80A00203C17002003
:1010C000381B00203C1B0020381F00203C1F002044
:1010D000382300203C23002038270020656E7465EB
:1010E000722073797374656D5F646174615F62729D
:1010F0006F616463617374202A2A2A2A31370D0ACA
:101100000000000042415349435F4D45535341475E
:10111000455F5441534B3A667265652069732025DB
:10112000642C20757365642069732025642C2075F8
:1011300073656420726174652069732025662525B6
:101140000D0A000038040508424C5545544F4F54D1
:10115000485F5441534B3A66726565206973202598
:10116000642C20757365642069732025642C2075B8
:101170007365642072617465206973202566252576
:101180000D0A0000475052535F5441534B3A667268
:1011900065652069732025642C207573656420695A
:1011A000732025642C20757365642072617465203A
:1011B000697320256625250D0A0000004654505FFE
:1011C0005441534B3A667265652069732025642C3F
:1011D00020757365642069732025642C2075736500
:1011E00064207261746520697320256625250D0AC7
:1011F000000000006600002053797374656D205272
:1012000065496E69742061667465722077616B69E7
:101210006E672075700D0A0045585449305F495279
:101220005148616E646C6572000000002800002067
:10123000656E74657220656C65637472696320699C
:101240006E7420666C61670D0A000000656E74653F
:101250007220616C61726D20696E7420666C6167CA
:101260002C776174696E6720666F722073656E6497
:10127000696E67206D657373616765207461736B58
:101280002E2E0D0A00000000656E746572206672D5
:10129000657175656E637920696E7420666C61672F
:1012A0000D0A0000656E74657220636F756E74645C
:1012B0006F776E20696E7420666C61670D0A00009E
:1012C00068000020746F74616C207261696E6661E1
:1012D0006C6C20706C7573652069732025640D0A31
:1012E0000000000045585449315F49525148616E31
:1012F000646C65720000000014040140180124426F
:101300002C000020AC2A00206C0000209C3E002015
:1013100070000020642004F053FD1B480168006841
:10132000401C194A1060194844540221084603F031
:10133000B8FA00F0040000287FF4AAAE05210320CB
:1013400003F0AFFA00F00100D8B1002010490860A6
:1013500000BF0021032003F0A4FAC4B2642004F00B
:101360002FFD0B4801680068401C094A10600948BD
:1013700044540521032003F094FA00F001000028F2
:10138000E7D107F04BFA10BD700000209C3F002011
:10139000740000209C40002010B54FF48051FC48A0
:1013A00005F01FF910BD10B54FF48051F84805F055
:1013B0001AF910BD2DE9F04105460E461746FFF714
:1013C000F2FF691E802202EB0111C8B200F061FB3E
:1013D000002404E0305D00F05CFB601CC4B2BC4241
:1013E000F8D3FFF7D9FFBDE8F08170B504460D468C
:1013F000FFF7D9FF611E402202EB01112944C8B258
:1014000000F047FB002000F044FB0646FFF7C4FF56
:10141000304670BD2DE9F0478046894615460B21C0
:101420004046FFF7E2FF8246022020EA0A00A8B108
:1014300009214046FFF7D9FF0746C7F58074AC4243
:1014400006D22646224649464046FFF7B3FF05E04E
:101450002A4649464046FFF7ADFF2E463046BDE8D6
:10146000F08770B505462C4605E00122214610465E
:10147000FFF7D0FF641C20780028F6D170BD70B54E
:1014800004460D461646FFF78EFF611E05EB01115F
:10149000C8B200F0FEFA304600F0FBFAFFF77CFF1E
:1014A00070BD2DE9F04780460F46112F4AD2DFE884
:1014B00007F049090D1115191D2125292D3135393F
:1014C0003D41450004247F2500263FE002243F25BE
:1014D00000263BE001241F25002637E000248F254D
:1014E000002633E00024472500262FE00024232592
:1014F00000262BE000241125002627E000240825E3
:10150000002623E001247F2500261FE00024BF25BC
:1015100000261BE000245F25002617E000242F256D
:10152000002613E00024172500260FE000240B25D9
:1015300000260BE000240525002607E000240225F4
:10154000002603E000240025002600BF00BF042180
:101550004046FFF74AFF8146002204214046FFF73C
:101560008EFF012203214046FFF789FF2246042116
:101570004046FFF784FF2A4605214046FFF77FFFDC
:10158000324606214046FFF77AFF002203214046FB
:10159000FFF775FF4A4604214046FFF770FFBDE89C
:1015A000F0872DE9F047074600210120FFF71DFFD6
:1015B0000646012F06D0022F0CD0032F12D0042F85
:1015C00020D117E046F00106324600210120FFF746
:1015D00056FF17E046F00206324600210120FFF7D1
:1015E0004EFF0FE046F00406324600210120FFF7CF
:1015F00046FF07E046F00806324600210120FFF7CB
:101600003EFF00BF00BF01210846FFF7EEFE044683
:10161000012F06D0022F0CD0032F12D0042F20D17F
:1016200017E044F00104224601210846FFF727FF96
:1016300017E044F00204224601210846FFF71FFF8D
:101640000FE044F00404224601210846FFF717FF8B
:1016500007E044F00804224601210846FFF70FFF87
:1016600000BF00BF10210120FFF7BFFE0546012F7C
:1016700006D0022F0CD0032F12D0042F20D117E058
:1016800045F001052A4610210120FFF7F8FE17E07A
:1016900045F002052A4610210120FFF7F0FE0FE079
:1016A00045F004052A4610210120FFF7E8FE07E077
:1016B00045F008052A4610210120FFF7E0FE00BF93
:1016C00000BF07213846FFF790FE804648F0030828
:1016D000424607213846FFF7D2FEFF220621384650
:1016E000FFF7CDFE012203213846FFF7C8FE402256
:1016F00007213846FFF7C3FE402208213846FFF78E
:10170000BEFE002203213846FFF7B9FE0421384609
:10171000FFF76BFE814649F003094A46042138462B
:10172000FFF7ADFEBDE8F08710B58021194804F041
:1017300058FF8021174804F056FF0A2004F06BFB85
:101740008021144804F04DFF642004F064FB10BDB8
:1017500010B500F0C5F9102000F0FCF910BD08B577
:101760000121282005F050FB4FF48050ADF8000017
:1017700010208DF8030003208DF80200694604480C
:1017800004F082FE4FF48051014804F02AFF08BDA6
:10179000000C01400020014010B5FFF7E0FFFFF70B
:1017A000D7FF10BD08B50121080205F02DFB8020F0
:1017B000ADF8000010208DF8030003208DF8020022
:1017C00069467A4804F060FE8021784804F009FFF9
:1017D00008BD10B5FFF7E6FFFFF7DEFFFFF7A4FF38
:1017E0000120FFF7DEFE0220FFF7DBFE0320FFF7FC
:1017F000D8FE05210120FFF754FE0F210220FFF73C
:1018000050FE0F210320FFF74CFE10BD1FB5012134
:10181000102005F0F9FA0121084605F0F5FA4820F4
:101820008DF80F004020ADF80C0003A9604804F0CB
:101830002BFE0621022004F03DFF402000900020F6
:101840008DF804000C208DF8050001208DF80600AD
:10185000684606F085F817208DF8080002208DF8FC
:10186000090000208DF80A0001208DF80B0002A865
:1018700004F041FD1FBD2DE9F04105460E46174617
:10188000FFF791FD691EC02202EB0111C8B200F002
:1018900000F9002405E0002000F0FBF83055601C42
:1018A000C4B2BC42F7D3FFF777FDBDE8F08170B555
:1018B000064601210846FFF798FD0546012E06D091
:1018C000022E0CD0032E12D0042E20D117E045F0AA
:1018D00001052A4601210846FFF7D1FD17E045F032
:1018E00002052A4601210846FFF7C9FD0FE045F031
:1018F00004052A4601210846FFF7C1FD07E045F02F
:1019000008052A4601210846FFF7B9FD00BF00BFC0
:1019100000210120FFF769FD0446012E06D0022EAA
:101920000CD0032E12D0042E20D117E024F0010495
:10193000224600210120FFF7A2FD17E024F0020457
:10194000224600210120FFF79AFD0FE024F0040455
:10195000224600210120FFF792FD07E024F0080451
:10196000224600210120FFF78AFD00BF00BF70BDA5
:101970002DE9F04105460E4600270B212846FFF7CA
:1019800034FD804608F0080068B10A212846FFF7B8
:101990002CFD04460CB94FF480742246314628468B
:1019A000FFF769FF27463846BDE8F0810020014077
:1019B0000010014070B50546002405E0601CC4B26B
:1019C000C82C01DD002070BD0221694805F0CFFB65
:1019D0000028F3D02946664805F076FB002405E090
:1019E000601CC4B2C82C01DD0020ECE70121604876
:1019F00005F0BDFB0028F3D05D4805F067FBC0B2E1
:101A0000E1E708B5012141F2040005F0FDF9E0200D
:101A1000ADF8000018208DF8030003208DF80200B7
:101A20006946544804F030FDE021524804F0D9FDE5
:101A30000020514908804FF482704880002088803F
:101A40000220C88001200881400248813820888116
:101A50000020C88107200882454805F05FFA01216F
:101A6000434805F000FBFF20FFF7A4FF08BD10B5B9
:101A700004463F4800884FF6C77108403C4908803B
:101A800008460088204308800121394805F0EBFA18
:101A900010BD70B50546002405E0601CC4B2C82C1A
:101AA00001DD002070BD0221344805F060FB0028F4
:101AB000F3D02946314805F007FB002405E0601CFF
:101AC000C4B2C82C01DD0020ECE701212B4805F051
:101AD0004EFB0028F3D0294805F0F8FAC0B2E1E740
:101AE00008B50121082005F08FF90121880305F0D0
:101AF00098F94FF46040ADF8000018208DF803000D
:101B000003208DF8020069461D4804F0BDFC4FF427
:101B100060411B4804F065FD00201A4908804FF41D
:101B20008270488000208880C88008814FF400704F
:101B30004881382088810020C881072008820F480A
:101B400005F0ECF901210D4805F08DFAFF20FFF7B3
:101B5000A0FF08BD10B504460A4884810146074825
:101B600005F0DCF90121054805F07DFA10BD000003
:101B70000030014000080140882A00200038004061
:101B8000000C01409A2A002008B50121082005F028
:101B90003BF94FF44060ADF8000010208DF80300D1
:101BA00003208DF802006946184804F06DFC08BD5A
:101BB00070B504460D460120154908600A2004F05E
:101BC0002AF92A462146002003F00FF80A2004F0E3
:101BD00022F900200F49C1F8A80170BD70B5044674
:101BE0000D4601200A49091D08600A2004F013F976
:101BF0002A4621460320FFF70DFC0A2004F00BF9CA
:101C000000200449C1F8AC0170BD0000000C014087
:101C1000A881214200802142FE4A10804FF0C84234
:101C2000A2F80011704710B50446002306E0E15CFD
:101C300003F11600FFF7F0FF581CC3B2082BF6DBC8
:101C400010BD10B50446002306E0E15C03F110006E
:101C5000FFF7E2FF581CC3B2062BF6DB10BD70B5D0
:101C600005460C4645F040010C20FFF7D5FFE1B2D8
:101C70000D20FFF7D1FF210A0E20FFF7CDFF0A212B
:101C80000B20FFF7C9FF322004F0C5F800210B201C
:101C9000FFF7C2FF70BD70B50646092E1BD2DFE804
:101CA00006F0050C1A1A08101A1A1500002421252E
:101CB00011E04FF4807441250DE04FF4005481256C
:101CC00009E04FF4045440F2011504E04FF480544D
:101CD00040F2E11500BF00BF21460020FFF7BFFF23
:101CE00029460420FFF7BBFF00211F20FFF794FFC8
:101CF00070BD0146C74801804FF0C840B0F80001F0
:101D0000704700B52820FFF7F4FF02462920FFF7AF
:101D1000F0FF42EA00222A20FFF7EBFF42EA0042EE
:101D20002B20FFF7E6FF42EA0062104600BD10B527
:101D30000020B94908600A2004F06DF80120B74975
:101D4000C1F89801642004F066F801211E20FFF715
:101D500063FF00211F20FFF75FFF03210020FFF733
:101D60005BFF00BF192004F056F80020FFF7C1FF09
:101D700000F001000028F5D100210846FFF74CFFD4
:101D800003210020FFF748FF00BF192004F043F8AB
:101D90000020FFF7AEFF00F001000028F5D110BDD4
:101DA00010B59AB001214FF4F07005F02DF8012123
:101DB000080205F01CF80121084605F025F840202E
:101DC000ADF8640003208DF8660010208DF86700E0
:101DD00019A9934804F058FB4020ADF8640048204E
:101DE0008DF8670019A98F4804F04EFB4CF2337050
:101DF000ADF8640003208DF8660018208DF86700A8
:101E000019A9874804F040FB4FF68070ADF86400D4
:101E100003208DF8660018208DF8670019A9824804
:101E200004F032FB4FF40050ADF8640003208DF84D
:101E3000660018208DF8670019A97C4804F024FB7F
:101E40004FF40070ADF8640003208DF86600182090
:101E50008DF8670019A9734804F016FB062108469F
:101E600004F028FC4020179000208DF860000C2022
:101E70008DF8610001208DF8620017A805F070FD53
:101E8000402005F0E4FD17208DF8580001208DF862
:101E9000590000208DF85A0001208DF85B0016A82B
:101EA00004F029FA00200090019003200290002005
:101EB000039004900590069002200790002008905F
:101EC000099010200A9000200B900C900D900E901D
:101ED0000F904FF4805010900020119012901390AA
:101EE000CDF850D0CDF854D007A805F005FE01215B
:101EF000022005F069FF4E48046808204D4908702B
:101F00000020488081204870022008710021494843
:101F100041718171210CC171210A01724472FF204B
:101F200044498872FF214348C17201734173817330
:101F3000C17301744174FFF7FAFE642003F06BFF74
:101F4000FFF7DFFE044623463BA201213EA004F03A
:101F500033F84048844202D001201AB010BD354900
:101F60000878FFF798FE00210846FFF755FE00218C
:101F70000220FFF751FE3F210820FFF74DFE3821D8
:101F80000920FFF749FE00210A20FFF745FE002146
:101F90002F20FFF741FE2C210120FFF73DFE0F21EE
:101FA000FE20FFF739FE80212D20FFF735FE214866
:101FB000001DFFF746FE1F480A30FFF734FE3121AF
:101FC0000520FFF729FE8021FF20FFF725FE194895
:101FD0004178FF20FFF720FE0020BEE770B50446E1
:101FE00044F040010C20FFF717FE0C210B20FFF7F7
:101FF00013FE0A2003F00FFF00210B20FFF70CFE59
:102000000D20FFF776FE02460E20FFF772FE42EA31
:10201000002021E0FE0000649881224200802242DC
:10202000001401400020014000180140001C014044
:10203000E8F7FF1FAC2B0020444D393030302049E9
:10204000443A2523780D0A00444D393030305F4939
:102050006E697400460A009085B2284670BD70B55E
:102060000024C2480078082811D108E0642003F059
:10207000D2FE601CC4B20A2C01DDFF2070BD01201D
:10208000FFF7ACFF00F020000028EFD010E008E0E0
:10209000642003F0C0FE601CC4B20A2C01DDFF20E6
:1020A000ECE70120FFF725FE00F040000028EFD00C
:1020B0000120FFF71EFE022101EAA0150020FFF714
:1020C00018FEC0F3C00005432846D7E770B50546A3
:1020D0000020FFF783FF0446012D02D124F40064A1
:1020E00001E044F4006421460020FFF7B8FD70BD14
:1020F00010B50020FFF772FF0446C4F3C02008B1FA
:10210000002010BD0120FCE72DE9FC41044600271A
:1021100000266A4600219648006807F0C0FB80212F
:10212000FF20FFF779FDF8209249088025461BE043
:102130006889B84216DD3846791C8FB26A68125C2D
:102140003046711CCEB201A90A54022E0CD19DF862
:1021500004009DF8051040EA01208649891C08808A
:10216000002601E02D680027002DE1D1012E04D1C9
:102170009DF804007F49891C0880217AFC20FFF724
:102180004BFD2089010AFD20FFF746FD01210220B9
:10219000FFF742FD00BFFE20FFF7ABFD00F002009D
:1021A00018B9FFF7A5FF0128F5D00221FE20FFF79F
:1021B00033FD6E484178FF20FFF72EFD6C48006824
:1021C00007F08FFCBDE8FC812DE9FF4100246A4641
:1021D00000216748006807F062FB00BFF020FFF7AE
:1021E00088FD6448801C008800F0FF08B8F1000FEB
:1021F00078D0B8F1010F0ED95FA020F053FC002178
:102200000520FFF709FD8021FE20FFF705FD204690
:1022100004B0BDE8F081F220564908804FF0C84074
:10222000B0F800010390881C008802900322BDF8DA
:10223000081010460CF096FB04468CB125460CE0C5
:102240006F686E8906E04FF0C840B0F80001388032
:10225000BF1CB61E002EF6DC2D68002DF0D110E05C
:10226000BDF808104DA020F01DFC01AFBDF80860BE
:1022700005E04FF0C840B0F800013880B61E002ECF
:10228000F7D1BDF80C0000F43F4040B9BDF808009C
:10229000402804DBBDF80800B0F5C06F3FDDBDF895
:1022A0000C1044A020F0FEFBBDF80C0000F4807080
:1022B00010B144A020F0F6FBBDF80C0000F4007053
:1022C00010B144A020F0EEFBBDF80C0000F400407B
:1022D00010B144A020F0E6FBBDF80800B0F5C06FD7
:1022E0000BDD00E00FE044A020F0DCFB012100202A
:1022F000FFF792FC052003F08EFD14B120460CF090
:10230000A9FA00246AE70221FE20FFF785FC81205C
:102310001649487008464178FF20FFF77DFC1448B5
:10232000006807F0DEFB204672E770B511480588AB
:10233000FE20FFF7DEFC04462146FE20FFF76CFC82
:1023400004F0040010B131A020F0ACFB04F0080050
:1023500010B131A020F0A6FB04F0010018B13648FE
:10236000006808F0A4F80348058070BDAC2B00207D
:1023700000020020FE000064646D393030302072AD
:10238000783A207278206572726F722C2073746FA5
:1023900070206465766963650D0A00007062756679
:1023A000C4DAB4E6C9EAC7EBCAA7B0DC3A25640DC3
:1023B0000A00000072785F7374617475733A2523A4
:1023C000780D0A007278206669666F206572726FF8
:1023D000720D0A00727820637263206572726F72E8
:1023E0000D0A00007278206C656E67746820657253
:1023F000726F720D0A0000007278206C656E67744F
:102400006820746F6F206269670D0A006F766572CD
:10241000666C6F77200D0A006F766572666C6F7759
:1024200020636F756E746572206F766572666C6F6F
:1024300077200D0A00000000FC010020014600206A
:10244000012900D011B9FE4B197000E02620704719
:102450000146FC4A506820F0FF0008435060704776
:1024600070B5044605E0F748456B05F0450000B13E
:1024700000E0F8E700BF042005F0E7FF20B10420EA
:1024800005F0EDFF032070BD012005F0DEFF20B157
:10249000012005F0E4FF0120F5E7EA480069A042C9
:1024A00001D01020EFE740F2FF50E649886308466C
:1024B000406908210840C0B2E5E72DE9FC41074624
:1024C0000D46002600240020009001900820DE49DF
:1024D000086010204860402088600020C8604FF4E9
:1024E00080600861084605F039FF1020FFF7B8FF4B
:1024F000044614B12046BDE8FC81D448008800049D
:10250000D149086037204860402088600020C860BA
:102510004FF480600861084605F020FF3720FFF780
:102520009FFF04460CB12046E5E74FF0FF30C84955
:10253000086008204860302088600220C8600020C1
:10254000086101204861084605F031FF0020BE49BE
:10255000086033204860402088600020C8604FF445
:1025600080600861084605F0F9FE3320FFF778FF28
:1025700004460CB12046BEE70CE04FF4001005F015
:1025800064FF38B105F035FF4DF82600761C022EA9
:1025900000D306E0AB48406B40F22A6108400028B7
:1025A000EBD000BF082005F050FF20B1082005F057
:1025B00056FF04209FE7022005F047FF20B10220CC
:1025C00005F04DFF022096E7202005F03EFF20B1E8
:1025D000202005F044FF06208DE74FF4007005F041
:1025E00034FF28B14FF4007005F039FF072082E76F
:1025F00040F2FF5005F033FF00980006009901F407
:102600007F4140EA0120009901F47F0140EA112056
:10261000009940EA1160686001980006019901F490
:102620007F4140EA0120019901F47F0140EA112035
:10263000019940EA1160286020465CE77CB50546B8
:10264000002400200090019000260DB1022600E039
:1026500000267C48406900F0007008B10E207CBD67
:102660007A49098888B26946FFF727FF04460CB10A
:102670002046F4E7019800F4802060B37348008896
:1026800000047149086037204860402088600020BD
:10269000C8604FF480600861084605F05FFE37208F
:1026A000FFF7DEFE04460CB12046D8E76648066018
:1026B000062065494860402088600020C8604FF4CB
:1026C00080600861084605F049FE0620FFF7C8FE55
:1026D00004462046C3E72520C1E770B5044600251F
:1026E0005C480078032801D1272070BD5948007844
:1026F00038B158480078012803D05648007802289D
:1027000018D1022C01D32720EFE7E0B2FFF796FFA4
:1027100005467DB94B48406820F4C050494948609F
:1027200008464068A1B240EAC120464948600846D0
:10273000406848602846D8E710B50446424804601F
:10274000072041494860402088600020C8604FF45D
:1027500080600861084605F001FE0720FFF780FE53
:1027600010BDF0B50146002000223A4B1B7881F8DD
:102770005630364B1B88A1F85430374B1B681A0E65
:1027800093090B70C2F383034B7002F003038B7049
:10279000314B1B68C3F30742CA702F4B1B88C3F32E
:1027A00007220A712C4B1A784A715B681A0E1301C2
:1027B000CB80294B5B68C3F30742CB8843EA1213F3
:1027C000CB8002F00F030B72234B9B88C3F30722CD
:1027D000D3094B72C2F380138B72C2F34013CB72D6
:1027E000C2F300130B7300234B731A4B1B783BB1DE
:1027F000184B1B78012B03D0164B1B78032B5ED193
:1028000093071B0D0B61144B1A790B6943EA820382
:102810000B61114B9B681A0E0B6943EA92130B6113
:10282000C2F3C2030B7502F007034B750A4B9B689A
:10283000C3F3074253098B75C2F38203CB750DE0D6
:102840003800002000800140D82B002034000020F8
:10285000EC2B002030000020042C002093075B0F9D
:102860000B76F74B1B89C3F307220B7E43EAD21387
:102870000B760B695B1C0024C1E912340B7E9B1C98
:10288000012404FA03F3DC17D1E91256A5FB037CFB
:1028900006FB03C305FB0433C1E912730C7A012361
:1028A000A3400B650024D1E912650B6DA6FB037CE8
:1028B00005FB03C306FB0433C1E912732EE0E14BB1
:1028C0001B78022B2AD1DE4B1A7993069B0A0B61E7
:1028D000DB4B9B681A0E0B6943EA02230B61D84B52
:1028E0009B68C3F307420B6913430B61D44B1B89ED
:1028F000C3F307220B695B1C4FF40074A3FB04466F
:102900004FF480630025A4FB037C06FB03C304FB98
:102910000533C1E912734FF400730B65C2F38013E2
:1029200001F8193F93065B0E4B70C54B1A7A4B7832
:1029300043EAD2134B7002F07F038B70C04BDB680D
:102940001A0ED309CB70C2F341130B71C2F3820389
:102950004B7193071B0F8B71B94BDB68C3F30742B5
:102960008B7943EA92138B71C2F34013CB7100232E
:102970000B7202F001034B72B14B9B89C3F3072228
:10298000D3098B72C2F38013CB72C2F340130B7363
:10299000C2F300134B73C2F381038B7302F0030382
:1029A000CB73A74B1A7B53080B7401234B74A64BB4
:1029B0001B681A0ECA741939A34B1B68C3F307426C
:1029C0001402CC85A04B1B88C3F30722CB8D134385
:1029D000CB859D4B1A7814060C635B681A0E0B6B43
:1029E00043EA02440C63984B5B68C3F307420B6BEA
:1029F00043EA02240C63944B9B88C3F307220B6BBE
:102A000013430B63904B1A7934235A548E4B9B68B3
:102A10001A0E35235A548C4B9B68C3F30742140695
:102A20008C63894B1B89C3F307228B6B43EA0244F7
:102A30008C63854B1A7A8B6B43EA02248C63824B3E
:102A4000DB681A0E8B6B13438B637F4BDB68C3F31E
:102A500007423C235B5C43EA12143C235C5413079B
:102A60001C0DCC87784B9B89C3F30722CB8F134374
:102A7000CB87754B1A7B540840235C5401244123B7
:102A80005C54F0BD70B500264FF4803505E06F480A
:102A9000446B04F0450000B103E02800A5F10105F6
:102AA000F5D100BF15B104F0040028B103260420BD
:102AB00005F0D5FC304670BD012005F0C6FC18B10C
:102AC0000126012005F0CBFC40F2FF5005F0C7FCC9
:102AD0003046F0E72DE9F04105460E464FF000087C
:102AE00005E05A48476B07F0450000B100E0F8E701
:102AF00000BF042005F0A9FC28B1042005F0AFFCBC
:102B00000320BDE8F081012005F09FFC20B10120E9
:102B100005F0A5FC0120F4E74C480069A84201D06B
:102B20001020EEE740F2FF5005F099FC4748446959
:102B300004F4604018B9200C30804046E1E704F40A
:102B4000005008B11320DCE704F4804008B11020E5
:102B5000D7E704F4004008B10F20D2E74046D0E7A1
:102B600038B500240120009005F0E3FB08B92520CA
:102B700038BD34480078042821D00020344908604A
:102B800002204860C02088600020C8604FF4806048
:102B90000861084605F0E2FBFFF774FF04460CB13C
:102BA0002046E5E7294840692749086027488069A9
:102BB00048602648C06988602448006AC860214887
:102BC000007858B11F480078012807D01D480078C8
:102BD000062803D01B480078022816D100201C4983
:102BE000086003204860402088600020C8604FF4DF
:102BF00080600861084605F0B1FB69460320FFF7D5
:102C000069FF04460CB12046B2E70E48007803285D
:102C100020D1BDF8000000040D4908600320486081
:102C2000402088600020C8604FF48060086108463A
:102C300005F094FBFFF726FF04465CB1204697E7BA
:102C4000042C002030000020142C002000800140C3
:102C5000D82B0020FE480078042827D0BDF80000BB
:102C6000FC490860BDF800000004FB490860092029
:102C70004860C02088600020C8604FF48060086110
:102C8000084605F06BFBFFF7FDFE04460CB120463D
:102C90006EE7F2484069F2490860F0488069486090
:102CA000EE48C0698860ED48006AC86000205FE7B0
:102CB00010B505E0E948446B04F0450000B100E0C0
:102CC000F8E700BF042005F0C0FB20B1042005F0A8
:102CD000C6FB032010BD40F2FF5005F0C0FB0020F2
:102CE000F8E770B500264FF4803505E0DB48446B0B
:102CF00004F0450000B103E02800A5F10105F5D17D
:102D000000BF15B104F0040028B10326042005F02B
:102D1000A6FB304670BD04F0400018B100264020EC
:102D200005F09DFB3046F5E770B500254FF4803483
:102D300004E0802005F089FB00B103E02000A4F14D
:102D40000104F6D100BF0CB9032070BD40F2FF5062
:102D500005F085FB2846F8E72DE9F0470027002419
:102D600000260025A046A146B220BE4908750020D5
:102D7000086048608860C8600861084605F0AEFADF
:102D8000032005F0CBFA012005F0C5FA00BF12E0E0
:102D90000020B149086048608860C8604FF48060D6
:102DA0000861084605F0DAFAFFF7BEFF044604B9E9
:102DB00003E0781CC7B24A2FEADB00BF14B12046FB
:102DC000BDE8F0874FF4D570A3490860082048603B
:102DD000402088600020C8604FF480600861084689
:102DE00005F0BCFAFFF77DFF044624B9012098499D
:102DF00008704FF0804900209749086037204860EC
:102E0000402088600020C8604FF480600861084658
:102E100005F0A4FA3720FFF723FB0446002C4BD122
:102E200034E000208C4908603720486040208860EA
:102E30000020C8604FF480600861084605F08EFAF3
:102E40003720FFF70DFB04460CB12046B8E7864853
:102E500049EA0000804908602920486040208860D5
:102E60000020C8604FF480600861084605F076FADB
:102E7000FFF71EFF04460CB12046A1E777484669DC
:102E8000012080EAD67080F001086D1CB8F1000FB7
:102E900003D14FF6FF708542C3D34FF6FF708542D2
:102EA00002D31B2420468BE706F08040060032D078
:102EB0000220674908702EE01CE06C4866490860F3
:102EC00001204860402088600020C8604FF4806086
:102ED0000861084605F042FAFFF7EAFE04460CB125
:102EE00020466DE75D484669012080EAD67080F093
:102EF00001086D1CB8F1000F03D14FF6FF70854239
:102F0000DBD34FF6FF70854202D31B24204657E7E0
:102F100003204F490870204652E77CB50025002465
:102F20000121302003F070FF012140F2024003F044
:102F30005EFF4FF4F850ADF8000018208DF8030044
:102F400003208DF802006946494803F09DFA0420E9
:102F5000ADF8000018208DF8030003208DF8020062
:102F60006946444803F090FA8020ADF800004820FC
:102F70008DF8030003208DF8020069463D4803F0F8
:102F800083FA05F09DF931208DF8040000208DF8BA
:102F900005008DF8060001208DF8070001A803F058
:102FA000AAF9FFF7D9FE044614B9FFF7D9FD044684
:102FB0001CB93148FFF7D5FB044634B92E49B1F8A6
:102FC00054100804FFF7B8FB04461CB90120FFF7B2
:102FD00084FB04461CB11E480078032812D1264801
:102FE00090F8560020B1244890F85600012801D1ED
:102FF0000A2500E004252846FFF72AFA0020FFF7FB
:103000001DFA044620467CBD10B5002005F086F967
:10301000002010BD70B58CB006460C461546012147
:10302000022003F0E4FE154804F062FB002113487F
:1030300004F02BFC09488030019002960395A0080B
:10304000049000200590802006908000079017E0F3
:103050003000002034000020D82B002000800140E8
:10306000042C0020C02B0020000010800080FF8076
:103070000010014000140140282C002044040240AC
:1030800080000890002009904FF400500A90002022
:103090000B9001A9FA4804F0CDFB0021F84804F098
:1030A000F4FB0CB070BD0146002002E04910421C48
:1030B000D0B20129FAD170472DE9F84F8146174661
:1030C00098460A9C4FF0000AD3464D464FF0FF3613
:1030D000B9F1000F02D12620BDE8F88F0020E949A0
:1030E000C862E9480078022805D10402780A40EA5B
:1030F000C8574FEA68280020E44988604860401EAD
:103100000860012048610020C8600861084605F099
:103110004EF9DC48406900F0007008B10E20DBE792
:10312000002C21DDB4F5006F1EDC601E2040D8B9F4
:103130002046FFF7B8FF0090D54804601020D4491E
:103140004860402088600020C8604FF480600861BB
:10315000084605F003F91020FFF782F98246BAF11C
:10316000000F03D05046B7E72620B5E700980001CE
:10317000C6498860084644604FF0FF30086001206F
:1031800048610220C86000200861084605F00FF978
:10319000BF4807601120BE49486040208860002079
:1031A000C8604FF480600861084605F0D7F8112028
:1031B000FFF756F98246BAF1000F01D050468BE76F
:1031C000B448007800285AD102F054FE18E04FF4B9
:1031D000004005F03AF978B14FF0000B06E0A9483D
:1031E0008030006845F82B000BF1010BBBF1080F94
:1031F000F5D32035A84E03E00EB904206CE7761E07
:10320000A048406B40F22A6108400028DFD0082027
:1032100005F01BF920B1082005F021F904205BE737
:10322000022005F012F920B1022005F018F9022061
:1032300052E7202005F009F920B1202005F00FF910
:10324000062049E74FF4007005F0FFF828B14FF46D
:10325000007005F004F907203EE703E005F0C9F827
:1032600028602D1D4FF4001005F0EFF80028F5D16F
:1032700002F002FE40F2FF5005F0F1F832E085481E
:10328000007801282ED1002221464846FFF7C2FED1
:103290000020824908708249087082490870794884
:1032A000C06B40F22A3108437649C863012005F01B
:1032B00052F800E0761E72484438006800F400506E
:1032C00038B97848007820B97448007808B9002ED9
:1032D000F0D10EB90420FFE67048007810B16F48B5
:1032E00090F800A05046F7E62DE9FF5F1746984694
:1032F000DDE90E464FF00009CA464FF0FF356A4936
:103300000098086000205F49C8625F480078022882
:1033100005D10402780A40EAC8574FEA682800201D
:103320005A4988604860401E0860012048610020BA
:10333000C8600861084605F03AF85248406900F054
:10334000007018B10E2004B0BDE8F09F002C21DD04
:10335000B4F5006F1EDC601E2040D8B92046FFF790
:10336000A2FE83464A480460102049494860402034
:1033700088600020C8604FF480600861084604F04F
:10338000EDFF1020FFF76CF88146B9F1000F03D074
:103390004846D8E72620D6E7012E70D906FB04F070
:1033A000B0F1007F01D32620CDE74FEA0B1037495B
:1033B000886006FB04F048604FF0FF300860012091
:1033C00048610220C86000200861084604F0EFFF51
:1033D0002F48076012202E49486040208860002056
:1033E000C8604FF480600861084604F0B7FF1220FF
:1033F000FFF736F88146B9F1000F01D04846A2E741
:103400002448007800287DD102F034FD1EE04FF4FE
:10341000004005F01AF8A8B14FF0000A08E019487A
:10342000803000682049096841F82A000AF1010A41
:10343000BAF1080FF3D31C48006820301A4908601D
:10344000154D03E00DB904207DE76D1E0D48406B5E
:1034500040F22A3108400028D9D0082004F0F5FFB6
:1034600020B1082004F0FBFF04206CE7022004F0E8
:10347000ECFFD8B1022004F0F2FF022063E7A4E0E1
:10348000440402400080014030000020EC2B00206A
:10349000D82B002038000020FFFF7F003A000020DA
:1034A000390000203B0000203C000020202004F0D8
:1034B000CCFF20B1202004F0D2FF062043E74FF4D8
:1034C000007004F0C2FF28B14FF4007004F0C7FF91
:1034D000072038E709E004F08CFFFA490968086022
:1034E000F8480068001DF74908604FF4001004F028
:1034F000ACFF0028EFD14FF4807004F0A6FF20B39A
:10350000F14800E028E0007838B1EF480078012861
:1035100003D0ED480078022817D10020EB4908605D
:103520000C204860402088600020C8604FF4806014
:103530000861084604F012FF0C20FEF791FF814657
:10354000B9F1000F01D04846FDE602F095FC40F2CB
:10355000FF5004F084FF38E0DD480078012834D1C2
:1035600006FB04F100220098FFF754FD0020D94922
:1035700008700120D84908700020D8490870D84840
:10358000C06B40F22A310843D549C8630846C06A77
:1035900040F00800C86200E06D1ED248006800F4E8
:1035A000005008B9002DF7D10DB90420CBE600BFBB
:1035B000CA48007818B9C74800780028F8D0C5482C
:1035C000007810B1C34890F800904846BBE61CB59F
:1035D0000446002001900090C34800880004BB49C5
:1035E00008600D204860402088600020C8604FF4CB
:1035F00080600861084604F0B1FEB948406B009055
:1036000002E0B748406B0090009800F045000028A9
:10361000F7D0012004F019FF20B1012004F01FFFB2
:1036200001201CBD042004F010FF20B1042004F090
:1036300016FF0320F5E7AA4800690D2801D01020E5
:10364000EFE740F2FF5004F00AFFA54840690190FF
:103650000198C0F3432020700020E2E72DE9FF5FCE
:1036600086B017469846149D0026002005900490C9
:10367000002481460390824602900195DDF818B03F
:10368000DDF818B0BBF1000F03D126200AB0BDE869
:10369000F09F00209249C862944988604860401EAB
:1036A0000860012048610020C8600861084604F0F5
:1036B0007EFE8B48406900F0007008B10E20E5E7FF
:1036C00081480078022805D10502780A40EAC857E7
:1036D0004FEA6828002D1FDDB5F5006F1CDC681E61
:1036E0002840C8B92846FFF7DEFC059077480560FA
:1036F000102076494860402088600020C8604FF460
:1037000080600861084604F029FE1020FEF7A8FE3C
:1037100006461EB13046B9E72620B7E77248008852
:1037200000046A4908600D2048604020886000203D
:10373000C8604FF480600861084604F00FFE0D2059
:10374000FEF78EFE06460EB130469FE7644840699C
:1037500003904FF0FF341BE0641E634800880004B0
:103760005A4908600D204860402088600020C860E9
:103770004FF480600861084604F0F0FD0D20FEF76C
:103780006FFE06460EB1304680E75548406903900B
:10379000039800F4807008B9002CDDD10CB9292001
:1037A00074E74A480760182048494860402088600C
:1037B0000020C8604FF480600861084604F0CEFD28
:1037C0001820FEF74DFE06460EB130465EE700209B
:1037D00041490870059800014449886008464560E1
:1037E0004FF0FF300860012048610020C860086188
:1037F000084604F0DCFD4FF0FF343548007800281F
:103800005FD102F037FB43E04FF4804004F01DFE2F
:10381000C8B30198A0EB0900202821D20198A0EBA1
:10382000090000F0030020B90198A0EB090080080E
:1038300004E00198A0EB09008008401C02904FF0C2
:10384000000A09E0DBF8000004F0D7FD0AF1010AE4
:103850000BF1040B09F1040902988245F2D30FE041
:103860004FF0000A05E05BF82A0004F0C6FD0AF1FB
:10387000010ABAF1080FF6D30BF1200B09F1200968
:103880006FF0404404E0FFE70CB90420FEE6641E3C
:103890001348406B40F21A6108400028B4D0082059
:1038A00004F0D3FD20B1082004F0D9FD0420EDE69A
:1038B000022004F0CAFDD8B1022004F0D0FD02209D
:1038C000E4E630E03C00002030000020D82B00204F
:1038D000380000203A000020390000203B00002082
:1038E000008001400004024034000020EC2B002046
:1038F000102004F0AAFD20B1102004F0B0FD052036
:10390000C4E64FF4007004F0A0FD28B14FF400703D
:1039100004F0A5FD0720B9E602F0AEFA40F2FF5030
:10392000FC4988633EE0FC48007801283AD1102227
:1039300029460698FFF76EFB0020F8490870F84901
:103940000870F8490870F348C06B40F21A31084318
:10395000F049C8630846C06A40F00800C86200E049
:10396000641EF148006800F4005008B9002CF7D13B
:103970001CB9FFF7D2FA042088E64FF0FF3400E0CC
:10398000641EE848007820B9E448007808B9002CA3
:10399000F6D10CB9042079E6E048007810B1DF4890
:1039A000007873E640F2FF5004F059FD04A8FFF7D9
:1039B0000EFE064603E004A8FFF709FE06463EB9E0
:1039C0009DF810000728F6D09DF810000628F2D0C8
:1039D00030465BE62DE9FF5F84B0DDE91247002643
:1039E000002003900290002580468146019007FB4D
:1039F00004FBDDF810A0DDF810A0BAF1000F03D130
:103A0000262008B0BDE8F09F0020C249C862C7491F
:103A100088604860401E0860012048610020C8603E
:103A20000861084604F0C3FCBA48406900F0007021
:103A300008B10E20E5E7BE480078022808D104024C
:103A4000DDE90601400A40EAC1504912CDE906010C
:103A5000002C1FDDB4F5006F1CDC601E2040C8B9CF
:103A60002046FFF720FB0390B24804601020B149C4
:103A70004860402088600020C8604FF48060086182
:103A8000084604F06BFC1020FEF7EAFC06461EB167
:103A90003046B6E72620B4E7012F6FD907FB04F0C4
:103AA000B0F1007F01D32620ABE7A148007838B100
:103AB0009F480078012803D09D48007802282DD126
:103AC0009D48008800049B490860372048604020DA
:103AD00088600020C8604FF480600861084604F0E8
:103AE0003DFC3720FEF7BCFC06460EB1304688E7A9
:103AF0009048076017208F49486040208860002068
:103B0000C8604FF480600861084604F027FC172065
:103B1000FEF7A6FC06460EB1304672E785490698C8
:103B2000086019204860402088600020C8604FF479
:103B300080600861084604F011FC1920FEF790FC33
:103B400006460EB130465CE703980001774988606D
:103B500007FB04F048604FF0FF3008600120486127
:103B60000020C8600861084604F021FC6A4800781B
:103B7000002871D1451E02F07DF940E0F3E0654870
:103B8000406B00F48040A8B3ABEB080020281ED2A5
:103B9000ABEB080000F0030018B9ABEB080080089D
:103BA00003E0ABEB08008008401C01904FF00009D7
:103BB00009E0DAF8000004F020FC09F101090AF13B
:103BC000040A08F1040801988145F2D30FE04FF090
:103BD000000905E05AF8290004F00FFC09F1010979
:103BE000B9F1080FF6D30AF1200A08F120086FF0A6
:103BF000404504E0FFE70DB9042002E76D1E45488B
:103C0000406B40F21A3108400028B8D0082004F078
:103C10001CFC20B1082004F022FC0420F1E6022064
:103C200004F013FC20B1022004F019FC0220E8E6A5
:103C3000102004F00AFC20B1102004F010FC052034
:103C4000DFE64FF4007004F000FC30B14FF4007078
:103C500004F005FC0720D4E62CE04FF4807004F05B
:103C6000F4FB00B33248007838B1314800780128BD
:103C700003D02F480078022815D100202D49086074
:103C80000C204860402088600020C8604FF48060AD
:103C90000861084604F062FB0C20FEF7E1FB0646D3
:103CA0000EB13046ADE602F0E7F840F2FF5004F006
:103CB000D6FB58E018480078012854D107FB04F1DE
:103CC00010220498FFF7A6F900201449087001207B
:103CD000134908700020134908700E48C06B40F269
:103CE0001A3108430B49C8630846C06A40F008000F
:103CF000C8624FF0FF3500E06D1E0B48006800F40D
:103D0000005008B9002DF7D1C5B9FFF706F9042016
:103D100077E6000000800140380000203A000020D3
:103D2000390000203B00002000040240EC2B002062
:103D300030000020D82B0020340000204FF0FF3549
:103D400000E06D1EC248007820B9C248007808B96A
:103D5000002DF6D10DB9042053E6BE48007810B10D
:103D6000BC4800784DE640F2FF5004F078FB02A812
:103D7000FFF72DFC064603E002A8FFF728FC0646E5
:103D80003EB99DF808000728F6D09DF808000628DF
:103D9000F2D0304635E610B5AF48406B00F4807085
:103DA00070B3AE480078012814D10020AC490860F7
:103DB0000C204860402088600020C8604FF480607C
:103DC0000861084604F0CAFA0C20FEF749FBA14935
:103DD000087002E000209F4908709F48806B40F403
:103DE00080709D4988630846C06B4CF23A31884325
:103DF0009949C8630120964908709648007810BD1B
:103E0000022004F022FB68B1022004F028FB924853
:103E1000C06B4CF23A3188438F49C86302208D4908
:103E20000870ECE7082004F010FB68B1082004F0EB
:103E300016FB8948C06B4CF23A3188438649C86307
:103E4000042084490870DAE7202004F0FEFA68B103
:103E5000202004F004FB8048C06B4CF23A318843C8
:103E60007D49C86306207B490870C8E7102004F02C
:103E7000ECFA68B1102004F0F2FA7748C06B4CF20B
:103E80003A3188437449C863052072490870B6E71F
:103E90004FF4007004F0D9FA70B14FF4007004F0E0
:103EA000DEFA6D48C06B4CF23A3188436A49C86308
:103EB000072068490870A2E70020A0E710B5FFF7C7
:103EC0006AFF10BD70B50446002514B926252846A2
:103ED00070BD644800880004614908600D20486096
:103EE000402088600020C8604FF480600861084668
:103EF00004F034FA0D20FEF7B3FA05460DB128465A
:103F0000E6E75548406920602846E1E708B500200B
:103F100000906846FFF7D6FF08B1FF2008BD009863
:103F2000C0F34320FAE72DE9FE4F83460C46914645
:103F300000200290002625462C46700240EAD55605
:103F40006D020BF00300F0B14FF0000A18E04FF4DF
:103F5000007000904FEA4A20471946EBE0733A465A
:103F60004148FFF7A9F802904FF400723E495846C5
:103F70001FF047F80BF5007B0AF1010000F0FF0A83
:103F8000CA45E4DB16E0B9F1010F09D14FF4007026
:103F90002A46334600905846FFF78EF8029009E013
:103FA0004FF400702A463346CDE900095846FFF722
:103FB0009BF902900298BDE8FE8F2DE9FE4F8146E5
:103FC0000C46924600200290002625462C467002A0
:103FD00040EAD5566D0209F00300F0B14FF0000B36
:103FE00018E04FF4007249461F481FF00AF84FF4DA
:103FF000007000904FEA4B20471946EBE0733A46B9
:104000001948FFF72BFB029009F500790BF101002D
:1040100000F0FF0BD345E4DB16E0BAF1010F09D144
:104020004FF400702A46334600904846FFF716FBCF
:10403000029009E04FF400702A463346CDE9000AA9
:104040004846FFF7C7FC02900298BDE8FE8F0000CB
:104050003B0000203A000020008001403900002091
:10406000D82B002034000020802C002010B5002424
:104070000020CD4908609020FDF79CFC0020FDF752
:1040800099FC0020FDF796FC0020FDF793FCFF2033
:10409000FDF790FC44EA0024FF20FDF78BFC04436D
:1040A0000120C249C1F89001204610BD08B5012188
:1040B000042002F0A9FE1020ADF800008DF80300E6
:1040C00003208DF802006946B94802F0DDF910219D
:1040D000B74802F086FA0120B3490860FDF791FC69
:1040E0000020FDF7C4FCFFF7C1FFB249088008BDFE
:1040F00010B500240020AC4908600520FDF75AFCEB
:10410000FF20FDF757FC04460120A849C1F89001A3
:10411000204610BD10B504460020A34908600120C8
:10412000FDF748FC2046FDF745FC01209F49C1F8FA
:10413000900110BD10B500209B4908600620FDF7D6
:1041400039FC01209949C1F8900110BD10B500203B
:10415000954908600420FDF72DFC01209349C1F822
:10416000900110BD2DE9F04106460C46174600208F
:104170008D4908600320FDF71DFCC4F30740FDF7DF
:1041800019FCC4F30720FDF715FCE0B2FDF712FCA3
:10419000002505E0FF20FDF70DFC7055681C85B279
:1041A000BD42F7DB012080490860BDE8F08110B511
:1041B00000BFFFF79DFF00F001000028F9D110BDFE
:1041C0002DE9F04106460C461746FFF7B3FF0020E5
:1041D000754908600220FDF7EDFBC4F30740FDF7C9
:1041E000E9FBC4F30720FDF7E5FBE0B2FDF7E2FBD6
:1041F000002504E0705DFDF7DDFB681C85B2BD4263
:10420000F8DB012068490860FFF7D1FFBDE8F081C5
:104210002DE9F04107460E461446F0B2C0F5807510
:10422000AC4200DC254612E02A4631463846FFF70C
:10423000C7FFAC4200D10BE02F442E44601B84B278
:10424000B4F5807F02DD4FF4807500E02546EBE792
:1042500000BFBDE8F08110B504462403FFF76AFFF4
:10426000FFF7A5FF0020504908602020FDF7A2FBC2
:10427000C4F30740FDF79EFBC4F30720FDF79AFB4C
:10428000E0B2FDF797FB01204849C1F89001FFF724
:104290008EFF10BD2DE9F05F81460F461646DFF810
:1042A00018B14FEA1738C7F30B0ACAF58054A64273
:1042B00000DC344644E04FEA08314FF4805258465F
:1042C000FFF750FF002508E00AEB05001BF800008F
:1042D000FF2800D003E0681C85B2A542F4DB00BFD4
:1042E000A54216DA4046FFF7B6FF002507E019F8A9
:1042F000050005EB0A010BF80100681C85B2A54218
:10430000F5DB4FEA08314FF480525846FFF780FF43
:1043100004E0224639464846FFF77AFFA64200D11C
:104320000FE008F101084FF0000AA1442744301BB8
:1043300086B2B6F5805F02DD4FF4805400E034466B
:10434000B9E700BFBDE8F09F10B5FFF7F3FEFFF738
:104350002EFF002014490860C720FDF72BFB012029
:104360001249C1F89001FFF722FF10BD10B50020DF
:104370000D490860B920FDF71DFB01200B49C1F86C
:104380009001032001F01CFD10BD10B5002006496E
:104390000860AB20FDF70EFB01200449C1F8900135
:1043A000032001F00DFD10BD9001214200002142CB
:1043B0000008014040000020802E002008B50320A6
:1043C0008DF8000000208DF801008DF8020001201A
:1043D0008DF80300684601F08EFF08BDF0B5034676
:1043E0000C461546642093FBF0F0C6B2642093FBA4
:1043F000F0F700FB1730C1B2132E02DD01F16400AB
:10440000C1B20846CF1701EB977701EBA707BAB205
:10441000072092FBF0F700FB172082B25719601EAD
:10442000DFF80CC41CF80000384482B2CF1701EB4F
:104430009777BF10A1EB87071FB9032C01DA501E35
:1044400082B2072092FBF0F700FB1720C0B2F0BD4C
:104450000146CA1701EB92729210A1EB820292B947
:10446000642091FBF0F200FB121050B94FF4C870B9
:1044700091FBF0F200FB121008B9012070470020F8
:10448000FCE70120FAE70020F8E770B500260024D9
:10449000002503F091FE0646E648B6FBF0F4E64838
:1044A0000088A0423CD0E4490C8040F2B27510E094
:1044B0002846FFF7CDFF40B1B4F5B77F02D3A4F58E
:1044C000B77404E0681C85B206E0A4F26D14681CA1
:1044D00085B2B4F5B67FEBD800BFD84885800025FB
:1044E00016E0D6498888FFF7B3FF30B1012D04D11B
:1044F0001D2C01D31D3C09E00CE0D148405DA042D9
:1045000003D8CF48405D241A00E003E0681C85B260
:104510001C2CE6D200BF681CC8498871601CC87199
:10452000C448B6FBF0F100FB11644FF46160B4FBCA
:10453000F0F0C24908704FF46160B4FBF0F100FB89
:1045400011403C21B0FBF1F0BC4948704FF4616070
:10455000B4FBF0F100FB11403C21B0FBF1F201FB98
:104560001200B64988700B46DA7999799888FFF776
:1045700035FFB2490872002070BD2DE9F05F064694
:104580000F4690469946DDE90AAB002440F2B2702E
:10459000864203DB40F63300864202DD0120BDE89F
:1045A000F09F40F2B2750AE02846FFF751FF10B1C4
:1045B000A448044401E0A4480444681C85B2B54200
:1045C000F2DB781EC7B2002510E09D48405D40F246
:1045D000A321484304EBC0143046FFF739FF18B15C
:1045E000012D01D193480444681C85B2BD42ECDB27
:1045F000A8F1010040F2A321484304EBC014C9EB29
:104600004910C0EB092004EB0014CAEB0A1004EBBC
:1046100080045C4401214FF0C05002F002FC0120F4
:1046200003F04FFD204603F0D0FD03F001FE002013
:10463000B5E71CB5002401214FF0C05002F0F1FB9A
:10464000012003F03EFD042003F025F845F250015F
:10465000884240D002F0EAFF012002F042FB04E071
:10466000601CC4B20A2001F0D6FB412002F0A1FA7E
:1046700008B9FA2CF4DBFA2C01DB01201CBD4FF445
:10468000807002F04AFB012002F04DFB03F0D0FDE8
:1046900003F0D7FD0121084603F06EFD03F0C8FDCD
:1046A00003F077FD47F6FF7003F09CFD03F0C0FDBB
:1046B000372014210A231B22CDE90010052140F2E6
:1046C000E370FFF75AFF03F06DFD45F2500104203F
:1046D00002F0D5FF07E003F0B4FD0121084603F026
:1046E0004BFD03F0A5FDFFF769FEFFF7CEFE0020AE
:1046F000C4E70EB5012003F0C9FD98B1FFF7C5FE70
:104700005248007820B152480068401C5049086067
:104710004F4800681E2805D14EA01EF0C3F90020A6
:104720004B490860022003F0B1FDA0B1022003F064
:10473000BDFDFFF7AAFE41488078404949783F4ACD
:104740001278CDE9002102903C48C37982798188B2
:1047500044A01EF0A7F9052003F0A8FD03F068FDB2
:104760000EBD2DE9F05F06460F4690469946DDE9FD
:104770000AAB002440F2B270864203DB40F63300FD
:10478000864202DD0120BDE8F09F40F2B2750AE0EA
:104790002846FFF75DFE10B12A48044401E02A488C
:1047A0000444681C85B2B542F2DB781EC7B200250E
:1047B00010E02348405D40F2A321484304EBC014BD
:1047C0003046FFF745FE18B1012D01D119480444C8
:1047D000681C85B2BD42ECDBA8F1010040F2A321C8
:1047E000484304EBC014C9EB4910C0EB092004EBAB
:1047F0000014CAEB0A1004EB80045C4401214FF062
:10480000C05002F00EFB012003F05BFC204603F0D9
:10481000F7FC03F00DFD0020B5E7014601F00F02A3
:104820000B1103EB830302EB4302D0B2704700008D
:10483000A2520208805101004C000020803E00205E
:10484000AE5202080085E2018033E10144000020FD
:104850004800002068656C6C6F2C776F726C640D7B
:104860000A000000416C61726D2054696D653A2543
:10487000642D25642D25642025643A25643A256439
:104880000A00000010B50120E44908601E2001F074
:10489000C2FA0020E249C1F8A0011E2001F0BBFAD3
:1048A00010BD0246DF4850F82200405C704730B52A
:1048B00004460D46002329462046FFF7F2FFC3B207
:1048C000184630BD10B5D74C54F82040625410BD86
:1048D00070B504460D461646324629462046FFF777
:1048E000F1FF70BD70B50446AA2207212046FFF7EC
:1048F000EFFF642001F08FFA07212046FFF7D7FF72
:104900000546AA2D06D12346C7A20021CDA001F05D
:1049100053FB05E02346D1A20721CAA001F04CFBBE
:10492000E8B270BD2DE9FF4F0D4616461F46DDE982
:104930000EABDDF834900024802203210098FFF7AD
:10494000C7FFCD4810F8152000210098FFF7C0FFE1
:10495000C94800EB4500427801210098FFF7B8FFF5
:1049600044EA090444EA8700C4B246B144F00804AA
:10497000022E02D144F0100401E004F0EF042246BC
:1049800003210098FFF7A4FFBAF1000F14D04FF0F5
:1049900000084FF00108424602210098FFF798FFF7
:1049A0004FF0070848EA8B1000F0FF08424602214A
:1049B0000098FFF78DFF07E04FF0060842460221FE
:1049C0000098FFF77FFF00BF02210098FFF76FFFFD
:1049D000082204210098FFF77BFF0122114600986E
:1049E000FFF776FFBDE8FF8F10B59EB000240121D0
:1049F0004FF4F07002F008FA0121080202F0F7F912
:104A00000121084602F000FA4FF48070ADF87400FE
:104A100003208DF8760010208DF877001DA99748A7
:104A200001F032FD8020ADF8740028208DF8770069
:104A30001DA9934801F028FD4CF2B300ADF87400B5
:104A400003208DF8760018208DF877001DA98D4879
:104A500001F01AFD4FF4F060ADF8740003208DF8FA
:104A6000760018208DF877001DA9874801F00CFD0D
:104A70000720ADF8740003208DF8760018208DF81B
:104A800077001DA9814801F0FFFC0721022001F0F9
:104A900011FE80201B9000208DF8700008208DF8FA
:104AA000710001208DF872001BA802F059FF8020D0
:104AB00002F0CDFF17208DF8680002208DF8690004
:104AC00000208DF86A0001208DF86B001AA801F013
:104AD00012FC00200490059003200690002007900F
:104AE000089009900A900B900C900D900E900F90EA
:104AF00010901190129013904FF480501490002059
:104B000015901690179004A8189019900BA802F011
:104B1000F3FF0121002003F057F9FFF7B3FE4FF038
:104B2000C040404908600020012103220346CDE92E
:104B30000021029002460721FFF7F4FE544839494C
:104B400048600020012103220346CDE900210290A4
:104B5000024607210120FFF7E5FE4E4831498860F3
:104B60000020012103220346CDE9002102900246E4
:104B700007210220FFF7D6FE47482A49C8600020D7
:104B8000012103220346CDE90021029002460721BC
:104B90000320FFF7C7FE00BF03E0E0B2FFF7A2FE6D
:104BA000641C032CF9DD00201EB010BDF0B50646D4
:104BB0000C468F27002514E005213046FFF777FECD
:104BC00000F0010038B100213046FFF770FE2946A1
:104BD0006D1C605400E005E03800A7F1010700D12A
:104BE00000E0E9E700BF2846F0BDF0B507460C46F7
:104BF0001546002600BF0DE005213846FFF757FE99
:104C000000F0200030B13046761C225C002138468E
:104C1000FFF75EFEAE42EFD3F0BD0000A0012442DC
:104C2000000024428C3E0020506F727420256420C6
:104C3000636865636B2069732073756365737321A3
:104C40000D0A00005354313643353534445F436810
:104C500065636B5F506F727400000000506F727478
:104C600020256420636865636B2069732066616931
:104C70006C6564210D0A00004F00002000200140F7
:104C8000001001400014014000180140001C0140C8
:104C9000008000600040006000C0006000B597B078
:104CA00001214FF4F07002F0AFF80121080202F088
:104CB0009EF84FF63370ADF8000018208DF8030011
:104CC00003208DF802006946364801F0DDFB4FF6FF
:104CD0008370ADF800006946334801F0D5FB4FF210
:104CE0003F00ADF800006946304801F0CDFB40F2CE
:104CF0003F40ADF8000069462D4801F0C5FB00209B
:104D000001900290032003900020049005900690EB
:104D1000079004200890002009900A9010200B9022
:104D200000200C900E900D900F9010904FF480503A
:104D30001190002012901390149001A815901690D5
:104D400008A802F0D9FE0121042003F03DF817B0B5
:104D500000BD10B506E004784FF0D0435C54491C08
:104D6000401C521E002AF6D110BD06E04FF0D04381
:104D70005B5C00F8013B491C521E002AF6D17047CB
:104D800013B50C46012221466846FFF7E2FF1CBD21
:104D900018B50446012221466846FFF7E6FF9DF854
:104DA000000018BD0014014000180140001C014023
:104DB00000200140322001E0411EC8B20028FBD192
:104DC000704710B54020FE490860FFF7F3FF8020D0
:104DD000FB490860FFF7EEFF4020F949091F086012
:104DE000FFF7E8FF8020F649091F0860FFF7E2FFA0
:104DF00010BD10B54020F2490860FFF7DBFF8020AE
:104E0000EF49091F0860FFF7D5FF4020EC49091F53
:104E10000860FFF7CFFF4020E9490860FFF7CAFFAD
:104E200010BD70B5082500248020E549091F0860E1
:104E300014E06006040E4020E1490860FFF7BAFF65
:104E40004020DF49091F0860FFF7B4FFDC480C3839
:104E5000006800F0800008B144F001042800A5F1CA
:104E60000101CDB2E5D14020D5490860204670BD92
:104E700010B54020D2490860FFF79CFF8020D04940
:104E80000860FFF797FF4020CD49091F0860FFF732
:104E900091FF4020CA490860FFF78CFF10BD10B594
:104EA0004020C7490860FFF785FF8020C449091FDB
:104EB0000860FFF77FFF4020C149091F0860FFF726
:104EC00079FFBF480C38006800F0800020B1402016
:104ED000BB490860002010BD4020B949086001208E
:104EE000F9E770B50446082519E04020B449086088
:104EF000FFF760FF04F0800020B18020B049091F57
:104F0000086002E08020AE4908606006040EFFF7EA
:104F100051FF4020AA49091F0860FFF74BFF2800F6
:104F2000A5F10101CDB2E0D14020A549086070BDD6
:104F300010B58020A249091F0860FFF73BFF402001
:104F40009F49091F0860FFF735FF9D480C3800682E
:104F500000F0800008B9002010BD8020984908604A
:104F6000FFF728FF402096490860FFF723FF012044
:104F7000F2E710B50446FFF7DBFF6420FFF7B1FF4F
:104F8000FFF78DFF18B9FFF71CFF002010BD0020B0
:104F9000FFF7A7FFFFF783FFFFF7CAFF6520FFF7C3
:104FA000A0FFFFF77CFFFFF73CFF2070FFF760FFDB
:104FB000FFF737FF6070FFF75BFFFFF732FF00F08E
:104FC0007F00A070FFF754FFFFF72BFFE070FFF7A3
:104FD0004FFFFFF726FF2071FFF74AFFFFF721FF82
:104FE0006071FFF745FFFFF71CFFA071FFF701FF9E
:104FF000FFF7E7FE0120C9E70EB57248FFF7B9FFDA
:10500000012802D070A01DF04DFD6E4800786D495A
:1050100049786C4A9278CDE9002102906948037979
:10502000427981796DA01DF03DFD0EBD10B5FFF7F1
:105030007FFF08B9002010BD6420FFF752FFFFF783
:105040002EFF18B9FFF7BDFE0020F4E70F20FFF791
:1050500048FFFFF724FF0020FFF743FFFFF71FFF84
:105060000020FFF73EFFFFF71AFFFFF7AAFE01201F
:10507000E1E710B5FFF75CFF08B9002010BD642020
:10508000FFF72FFFFFF70BFF18B9FFF79AFE00207D
:10509000F4E71020FFF725FFFFF701FF8020FFF75F
:1050A00020FFFFF7FCFEFFF78CFEFFF741FF6420B7
:1050B000FFF717FFFFF7F3FE0F20FFF712FFFFF7D1
:1050C000EEFE8420FFF70DFFFFF7E9FEFFF779FE04
:1050D0000120D3E710B50446FFF7CBFFFFF728FF09
:1050E0006420FFF7FEFEFFF7DAFE18B9FFF769FE4E
:1050F000002010BD0020FFF7F4FEFFF7D0FE20785F
:10510000FFF7EFFEFFF7CBFE6078FFF7EAFEFFF751
:10511000C6FEA17841F08000FFF7E3FEFFF7BFFE77
:10512000E078FFF7DEFEFFF7BAFE2079FFF7D9FE41
:10513000FFF7B5FE6079FFF7D4FEFFF7B0FEA07968
:10514000FFF7CFFEFFF7ABFEFFF73BFEFFF76EFF6B
:105150000120CEE72DE9FC4704460D4616461F46C2
:10516000DDE90A890020009001908DF806408DF855
:1051700005508DF804608DF802708DF801808DF86F
:1051800000906846FFF7A6FF012802D01CA01DF082
:1051900089FCBDE8FC871FB501210C2001F034FE1D
:1051A0004020ADF80C0003208DF80E0014208DF87F
:1051B0000F0003A90248143801F066F980202BE0A3
:1051C000140C01405F000020726561642074696DF9
:1051D00065206661696C65640D0A000025303278CF
:1051E0002D253032782D253032782D2D2D25303259
:1051F000783A253032783A253032780D0A000000AE
:1052000072746320777269746520646174652066C6
:1052100061696C65640D0A00ADF80C0003208DF81F
:105220000E0014208DF80F0003A9B64801F02CF9E8
:105230000120ADF80C0048208DF80F0003208DF8F8
:105240000E0003A9B04801F01FF906208DF80800F0
:1052500002208DF809008DF80A0001208DF80B005E
:1052600002A801F048F80120009000208DF8040009
:1052700008208DF8050001208DF80600684602F030
:105280006FFB1FBD10B5FFF786FF10BD2DE9F04184
:1052900004460E4617461D46642C01D1FFF7E9FE71
:1052A000FFF746FE2046FFF71CFEFFF7F8FD20B98A
:1052B000FFF787FD0020BDE8F0813046FFF711FEC3
:1052C000FFF7EDFD05E015F8010BFFF70AFEFFF70C
:1052D000CFFD381EA7F10101CFB2F4DCFFF771FD5D
:1052E000642C01D1FFF7A2FE0120E4E72DE9F04193
:1052F00005460E4617461C46FFF71AFE2846FFF7DE
:10530000F0FDFFF7CCFD20B9FFF75BFD0020BDE805
:10531000F0813046FFF7E5FDFFF7C1FDFFF708FE1E
:10532000691CC8B2FFF7DDFDFFF7B9FD05E0FFF727
:1053300078FD2070FFF79CFD641C781EC0B2071E2C
:10534000F5DCFFF76EFD2070FFF753FDFFF739FD29
:105350000120DCE73EB50446F02000906078B421DF
:1053600041EA8010C0B28DF8040020780007000EDA
:105370008DF8050000208DF8060020798DF80700D3
:10538000A088000A8DF808006068000C8DF80900FC
:105390006B46012210216420FFF778FF01AB062243
:1053A00010216420FFF772FF3EBD3EB505460C4656
:1053B00020788DF8000060788DF80100A0788DF8D5
:1053C000020000208DF8030020798DF80400607938
:1053D0008DF80500A0798DF806008DF80750FF20A4
:1053E0008DF8080092208DF809006B460A220721EB
:1053F0006420FFF74BFF3EBD38B50446A1208DF871
:1054000000008DF801406B46022210216420FFF756
:105410003DFF38BD38B504468020A04300906B4660
:10542000012210216420FFF731FF38BD7CB504460E
:105430000020009001900025607800F00F00617856
:10544000091101EB810100EB4100C6B2052096FB7A
:10545000F0F0401C00EB8000C5B2681EC5B20A2007
:1054600095FBF0F100FB115195FBF0F001EB001002
:10547000C0B28DF8010050208DF8000060789DF8D2
:10548000011088420DDB9DF80100592806DA9DF8CD
:105490000100401DC0B28DF8010002E004208DF82B
:1054A000010069460320FFF780FF7CBD1CB5002486
:1054B0000020009001906B4602221A216420FFF721
:1054C00015FF9DF80000C011C0EB00209DF80110F1
:1054D000441820461CBD1CB561200190002000909E
:1054E00001AB012219216420FFF7D0FE6B46012297
:1054F00019216420FFF7FAFE9DF8001003A01DF0AB
:10550000D1FA1CBD000C01400008014072656164C5
:105510005F64617420697320253032780D0A0000C1
:1055200000B587B0012148F2800001F06DFC4FF416
:10553000004001F0CDFB4020ADF8040000208DF8C4
:10554000070003208DF8060001A9784800F09CFFB1
:10555000774801F043FE002002908DF80C008DF892
:105560000D004FF4602004900020059001208DF87C
:10557000180002A96E4801F058FE01216C4801F0A4
:1055800080FE6B4801F09FFE00BF694801F0A0FE5D
:105590000028FAD1664801F0A5FE00BF644801F07A
:1055A000A6FE0028FAD107B000BD08B50121802071
:1055B00001F02AFC4FF48060ADF8000010208DF857
:1055C000030003208DF802006946584800F05CFF94
:1055D0004FF46070ADF8000010208DF80300032038
:1055E0008DF802006946514800F04EFF08BD10B525
:1055F000FFF7DBFFFFF794FF10BD10B5044607234C
:10560000012221464A4801F0A8FE0121484801F044
:1056100078FE00BF0221464801F0E4FF0028F9D0DF
:10562000434801F001FF10BD2DE9F04107460C464B
:105630000025002608E03846FFF7DFFF0544052077
:1056400000F0E9FB701CC6B2A642F4DBB5FBF4F037
:1056500080B2BDE8F0812DE9F34F8DB08346002084
:105660000B9082460A900990324A07CA06AB07C3DC
:1056700030490C3103C9CDE904010EE058460BEB6B
:10568000D0714910ABEB41010BAA02F80A100BEBE9
:10569000D071C1F3470B0AF1010ABBF1000FEDDC39
:1056A000002025490860824616E00BA810F80A0081
:1056B00040B904AA32F81A1006AA52F82A0000F0DB
:1056C00092FF07E004AA32F81A1006AA52F82A003C
:1056D00000F087FF0AF1010ABAF1030FE5DB0A20A7
:1056E00000F099FB04200E99FFF79EFF0A900A989C
:1056F0001FF01AFC01901FF067FA06464FF0663261
:105700000E4B1FF063F900220D4BCDE902011EF094
:10571000DBFF044600220B4B1EF0D6FF80461EF036
:10572000A1FF099009980FB0BDE8F08F001C01405F
:10573000003C0140C0520208A881234266660A402C
:105740000000B040D578C93F10B50821A44800F04A
:105750004AFF10BD08B501214FF49C7001F054FBC5
:1057600010208DF803000820ADF8000003208DF80C
:10577000020069469A4800F087FEFFF7E5FF4FF404
:105780000060ADF800006946964800F07DFE4FF4D9
:105790000061944800F025FF4FF48050ADF8000000
:1057A0006946904800F070FE4FF480518D4800F03B
:1057B00018FF4FF40050ADF800006946894800F02A
:1057C00063FE4FF40051874800F00BFF4FF4004098
:1057D000ADF800006946834800F056FE4FF40041E2
:1057E000804800F0FEFE0820ADF8000010208DF883
:1057F000030003208DF8020069467B4800F044FE58
:105800000821794800F0EDFE1020ADF800008DF879
:10581000030003208DF802006946734800F034FE4F
:105820001021714800F0DDFE2020ADF800001020AE
:105830008DF8030003208DF8020069466A4800F0E5
:1058400023FE2021684800F0CCFE0220ADF80000C5
:1058500010208DF8030003208DF80200694663488C
:1058600000F012FE0221614800F0BBFE0820ADF8F6
:10587000000010208DF8030003208DF80200694617
:105880005A4800F001FE0821584800F0AAFE08BD61
:1058900010B50821524800F0A4FE012000F0BBFA28
:1058A0004FF400614F4800F09CFE012000F0B3FA75
:1058B0004FF480514B4800F094FE012000F0ABFA09
:1058C0004FF40051474800F08CFE012000F0A3FA8D
:1058D0004FF40041434800F084FE012000F09BFAA1
:1058E0000821414800F07DFE012000F094FA1021CB
:1058F0003D4800F076FE012000F08DFA20213A4864
:1059000000F06FFE012000F086FA0221374800F017
:1059100068FE012000F07FFA0421344800F061FEA7
:10592000012000F078FA0821304800F05AFE0120EA
:1059300000F071FA10BD10B50821294800F053FE9F
:10594000012000F068FA4FF40061264800F04BFE99
:10595000012000F060FA4FF48051224800F043FE2D
:10596000012000F058FA4FF400511E4800F03BFEB1
:10597000012000F050FA012000F04DFA08211A48E9
:1059800000F031FE012000F046FA1021164800F028
:105990002AFE012000F03FFA2021134800F023FEE8
:1059A000012000F038FA0221104800F01CFE01200E
:1059B00000F031FA04210D4800F015FE012000F03E
:1059C0002AFA0821094800F00EFE012000F023FA0F
:1059D00010BD10B50821024800F003FE10BD000004
:1059E0000014014000200140000C01400010014063
:1059F00070B504460D462A4621460120FBF70AFDF4
:105A000070BD70B50446002521460120FBF7B0FFAC
:105A10000546284670BD00001FB50121042001F095
:105A2000F3F90121080701F0FCF948208DF80F0077
:105A30000120ADF80C0003208DF80E0003A94348A7
:105A400000F022FD0021084600F034FE06208DF80B
:105A5000000001208DF8030002208DF801008DF870
:105A60000200684600F047FC012001908DF80A0012
:105A700000208DF808000C208DF8090001A801F025
:105A80006FFF1FBD0EB50121080201F0BDF94820CE
:105A90008DF80B004020ADF8080003208DF80A00B7
:105AA00002A92B4800F0F0FC4020009000208DF867
:105AB00004000C208DF8050000208DF806006846D3
:105AC00001F04EFF0EBD0EB50121080201F09CF958
:105AD00004208DF80B004020ADF8080003208DF85D
